:020000020000FC
:200000000040007408408C140800683A00000000000000000000000000000000000000009A
:20000800DEFFED04DFC00015D8400215D8800315D8C00415D9000515D9400615D98007156A
:20001000D9C00815000B307ADA000915DA400A15DA800B15DAC00C15DB000D15DB400E15C4
:20001800DB800F15DBC01015D9401115EBFFFF04DBC012150009313A2880004C10000326FA
:200020002000022600100FC000000706DF401215E8BFFF17E93FFF0400101D001000021E01
:20002800EBFFFF04DBC01215D9401117DF401217DFC000172801707AD8400217D880031714
:20003000D8C00417D9000517D9400617D9800717D9C00817DA000917DA400A17DA800B17F2
:20003800DAC00C17DB000D17DB400E17DB800F17DBC01017DEC01304EF80083ADEFFF90429
:20004000DFC00615DF000515DF0005040001883A0005313AE0BFFE15E0BFFE17E0BFFB15BD
:20004800E03FFD1500800044E0BFFC15E0FFFB17E0BFFC171884703A1000142600800074CC
:200050001095F504E0FFFD17180690FA10C5883A10C00017008000741095F504E13FFD1713
:20005800200890FA1105883A10800104108000171009883A183EE83A0001883A0005313A3C
:20006000E0BFFF15E0BFFF1700000706E0BFFC171085883AE0BFFC15E0BFFD1710800044CB
:20006800E0BFFD15003FE106E0BFFB15E0BFFB17103FDB1E0001883A0001883AE037883A9A
:20007000DFC00117DF000017DEC00204F800283ADEFFFB04DFC00415DF000315DF00030454
:20007800E13FFF1500BFFFC4E0BFFD15E03FFE15D0A5A81710000726D0A5A817E0FFFD1737
:20008000E1BFFE17E17FFF171809883A103EE83A00000206003DA03A0005883AE037883A23
:20008800DFC00117DF000017DEC00204F800283A06C00074DEE7101406800074D6B04B14AB
:20009000008000741095EC1400C0007418D6351410C00326100000151080010410FFFD3657
:2000980000105E80001066C0003FFF06DEFFFA04DFC00515DF000415DF000404E13FFF1539
:2000A000E0BFFF17E0BFFD15008000B410841704108000371007883AE0BFFD1710C00005CF
:2000A8000007883A008000B41084170410C0003500800044E0BFFE05E03FFC0500001206E9
:2000B000E0BFFE0310C03FCC008000B410840C0410C00035D0A5A10310803FCC0149C40412
:2000B8001009883A00103D801009883A00106E80E0BFFE031085883AE0BFFE05E0BFFC0370
:2000C00010800044E0BFFC05E0BFFC0310800230103FEB1E0007883A008000B410840C0453
:2000C80010C000350001883AE037883ADFC00117DF000017DEC00204F800283ADEFFFD04EE
:2000D000DFC00215DF000115DF000104D0A5A144E0BFFF1500C00044008000B4108416048E
:2000D80010C000350007883A008000B41084170410C000350180007431809B04E17FFF1797
:2000E00001000044001040000007883A008000B410840C0410C000350001883AE037883A29
:2000E800DFC00117DF000017DEC00204F800283ADEFFFE04DFC00115DF000015D839883AF2
:2000F000001033C0008000B41084100410800037D0A5A105003FFB060005883A20000726DB
:2000F80020C0004C2008D07A180001261145883A294B883A203FFA1EF800283AF800283A92
:20010000DEFFF004DF000F15DF000F04E13FFD15E17FFE15E1BFFF1500BFFA84E0BFF115DE
:20010800E0BFFD17108008281000501E0005303AE0BFF615E0FFF61700BFFF841884703A59
:200110001001703AE0BFF617E0BFF315008000741095F504E0FFFD17180690FA10C5883AFD
:20011800E0FFFF1710C00015008000741095F504E0FFFD17180690FA10C5883A1080010494
:20012000E0FFFE1710C00015E0BFFF1710001926E0BFFD17E0BFF2150005303AE0BFF7156F
:20012800E0FFF71700BFFF841884703A1001703AE0BFF717E0BFF81500C00044E0BFF21782
:200130001884983A1007883AD0A5A2171884B03AD0A5A215D0A5A217100170FAE0BFF81731
:20013800E0BFF915E0BFF9171001703A0005883A00001906E0BFFD17E0BFF4150005303AE0
:20014000E0BFFA15E0FFFA1700BFFF841884703A1001703AE0BFFA17E0BFFB1500C000445B
:20014800E0BFF4171884983A0084303A1007883AD0A5A2171884703AD0A5A215D0A5A217EA
:20015000100170FAE0BFFB17E0BFFC15E0BFFC171001703A0005883AE0BFF115E0BFF31731
:20015800E0BFF515E0BFF5171001703AE0BFF117E037883ADF000017DEC00104F800283A05
:20016000DEFFFC04DF000315DF000304E13FFD15E17FFE15E1BFFF15E0FFFE17E0BFFD17C5
:2001680018800C2600000806E0BFFE1710C00104E0FFFE15E0FFFD1719000104E13FFD15E1
:2001700018C0001710C00015E0FFFE17E0BFFF1718BFF51E0001883AE037883ADF00001776
:20017800DEC00104F800283ADEFFFE04DFC00115DF000015D839883A0180007431905604FF
:2001800001400074294AC0040100007421105604001058000180007431808C040140007420
:200188002940080401000074210008040010580001800074318AC00401400074294AB20486
:2001900001000074210AB2040010580000115CC000117B800001883AE037883ADFC0011705
:20019800DF000017DEC00204F800283ADEFFFD04DFC00215DF000115DF0001040009883A1B
:2001A000001074C00001883A0010784001800074318AB20401400074294AB20401000074B7
:2001A800210AB2040011B5C000116F80010000742105D60400123A00D0A5A317D0E5A41770
:2001B000D125A517200D883A180B883A1009883A00103B00E0BFFF150100004400114F40EB
:2001B800E13FFF1700123B40DEFFFD04DFC00215DF000115DF000104E13FFF15E13FFF178D
:2001C00000113600E037883ADFC00117DF000017DEC00204F800283ADEFFFD04DFC00215C0
:2001C800DF000115DF000104E13FFF15D1600304E13FFF1700116540E037883ADFC0011756
:2001D000DF000017DEC00204F800283ADEFFFD04DFC00215DF000115DF000104E13FFF157A
:2001D80000120840008000441001703A0001883AE037883ADFC00117DF000017DEC0020441
:2001E000F800283ADEFFFE04DFC00115DF000015D839883A000D883A000B883A0100007439
:2001E800210ACA040010930001000074210AC004001071800001883AE037883ADFC00117A3
:2001F000DF000017DEC00204F800283ADEFFFA04DFC00515DF000415DF000404E13FFD1556
:2001F800E17FFE15E1BFFF15E0BFFD1710800017E0BFFC15E0BFFC1710C00A04E0BFFD1773
:2002000010800217100F883AE1BFFF17E17FFE171809883A0010DF40E037883ADFC0011787
:20020800DF000017DEC00204F800283ADEFFFA04DFC00515DF000415DF000404E13FFD153D
:20021000E17FFE15E1BFFF15E0BFFD1710800017E0BFFC15E0BFFC1710C00A04E0BFFD175A
:2002180010800217100F883AE1BFFF17E17FFE171809883A00110100E037883ADFC001178C
:20022000DF000017DEC00204F800283ADEFFFC04DFC00315DF000215DF000204E13FFF1527
:20022800E0BFFF1710800017E0BFFE15E0BFFE1710C00A04E0BFFF1710800217100B883ADB
:200230001809883A0010C9C0E037883ADFC00117DF000017DEC00204F800283ADEFFFA04D3
:20023800DFC00515DF000415DF000404E13FFD15E17FFE15E1BFFF15E0BFFD17108000175B
:20024000E0BFFC15E0BFFC1710800A04E1BFFF17E17FFE171009883A0010D040E037883A9F
:20024800DFC00117DF000017DEC00204F800283ADEFFFA04DFC00515DF000415DF00040478
:20025000E13FFD15E17FFE15E1BFFF15E0BFFD1700C0004410C00815E0BFFD171080001737
:20025800108001041007883AE0BFFD171080081718800035E0BFFE17E0FFFF17D800001553
:20026000E1FFFD170180007431827C04180B883A1009883A00117D80E0BFFD1710000915B3
:20026800E0BFFD1710800204D0E5A617E1FFFD17018000743182FF04180B883A1009883A5C
:20027000001123401000040EE0FFFD1700A0003410BFFFC4188001150001883AE037883A35
:20027800DFC00117DF000017DEC00204F800283ADEFFF804DF000715DF000704E13FFF15C9
:20028000E0BFFF17E0BFFB15E0BFFB1710800017E0BFFC15E0BFFC171080010410800037E4
:20028800E0BFFD15E0BFFD171080C00C10006D26E0BFFD171080400C100035260080007405
:20029000E0BFF915E0BFFB1710800A17108000441081FFCCE0BFFE15E0BFFB1710C00B17BA
:20029800E0BFFE1718801526E0BFFC1710800037E0BFF915E0BFF91710A0000C10001126E7
:2002A000E0BFFB1710800A17E0FFF9171809883AE0FFFB171885883A10800E041100000502
:2002A800E0BFFB1710800A171080004410C1FFCCE0BFFB1710C00A15003FE2060001883ADA
:2002B000000001060001883AE0BFF91710BFFFEC10000F26E0BFFB1710C0081700BFFF84D4
:2002B8001886703AE0BFFB1710C00815E0BFFC17108001041007883AE0BFFB1710800817C0
:2002C00018800035E0BFFC171080010410800037E0BFFD171080800C103FBE26E0BFFD178E
:2002C8001004D43AE0BFFA1500001406E0BFFC17E0FFFB1718C00D17E13FFB1720C7883AB2
:2002D00018C20E0418C0000318C03FCC18C0201C18FFE00410C00035E0BFFB1710800D17EB
:2002D8001080004410C1FFCCE0BFFB1710C00D15E0BFFA1710BFFFC4E0BFFA15E0BFFA1753
:2002E00010000526E0BFFB1710C00D17E0BFFB1710800C1718BFE51EE0BFFA17103F9D261E
:2002E800E0BFFB1710C0081700BFFF441886703AE0BFFB1710C00815E0BFFB171080001716
:2002F000108001041007883AE0BFFB171080081718800035E0BFFC17108001041080003745
:2002F800003F8C060001883A0001883AE037883ADF000017DEC00104F800283ADEFFF804EA
:20030000DF000715DF000704E13FFB15E0BFFB17E0BFF915E0BFF91710800017108001047F
:2003080010800037E0BFFA15E0BFFA171081000C10000B26E0BFF9171080001710800104E7
:200310001007883AE0BFF917108008171081001418800035E0BFF9171000091500000A0637
:20031800E0BFF91710C0091700A0003410BFFF0410C00536E0BFF9171080091710C0004402
:20032000E0BFF91710C00915D0A5A617E037883ADF000017DEC00104F800283ADEFFFD0444
:20032800DF000215DF000204E13FFE15E17FFF1500000506E0BFFF171090000C100002268F
:2003300000BFFD4400000B06E0BFFE1710C00D17E0BFFE1710800C1718800526E0BFFE1716
:2003380010C00917E0BFFE171080011718BFF1360005883AE037883ADF000017DEC0010422
:20034000F800283ADEFFFA04DF000515DF000504E13FFD15E17FFE15E1BFFF1500BFF9C4B2
:20034800E0BFFB15E0BFFE1710DA80601800031E109A80A01000181E00002906E0BFFD173D
:2003500010C0011700A0003410BFFFC418802126E0BFFF1710800017E0BFFC15E0BFFC17A2
:20035800108000901000061EE0FFFC1700A0003410BFFFC418800226E0BFFC17000002065F
:2003600000A0003410BFFF84E0FFFD1718800115E03FFB1500000F06E0BFFD1710C00117D7
:2003680000A0003410BFFFC418800C26E0BFFD1710C00917E0BFFD17108001171885803AF0
:2003700010C03FCCE0BFFF1710C00015E03FFB15000002060001883A000001060001883A34
:20037800E0BFFB17E037883ADF000017DEC00104F800283ADEFFF304DFC00C15DF000B1555
:20038000DF000B04E13FFC15E17FFD15E1BFFE15E1FFFF15E0BFFD17E0BFF515000047067C
:20038800E0BFFC1710800A17E0BFF715E0BFFC1710800B17E0BFF815E0FFF717E0BFF8179C
:2003900018800536E0FFF717E0BFF8171885C83AE0BFF6150000040600C20004E0BFF81718
:200398001885C83AE0BFF615E0BFF61710001E26E0FFFE17E0BFF6171880022EE0BFFE17E0
:2003A000E0BFF615E0BFFC1710C00E04E0BFF8171885883AE1BFF617100B883AE13FF5173C
:2003A80000124680E0FFF517E0BFF6171885883AE0BFF515E0FFFE17E0BFF6171885C83A7F
:2003B000E0BFFE15E0FFF817E0BFF6171885883A10C1FFCCE0BFFC1710C00B15E0BFFE1790
:2003B80000BFCF16000001060001883AE0FFF517E0BFFD171880141EE0BFFF171090000CEE
:2003C0001000131E0001883AE0BFFC1710C00A17E0BFF7171880051EE0BFFC1710C009176C
:2003C800E0BFFC171080011718BFF736E0BFFC1710C00A17E0BFF71718800726E0BFFE17EE
:2003D00000BFB716000005060001883A000003060001883A000001060001883AE0FFF51732
:2003D800E0BFFD17188018260005303AE0BFFB15E0FFFB1700BFFF841884703A1001703A2A
:2003E000E0BFFB17E0BFFA15E0BFFC171080081710C00054E0BFFC1710C00815E0BFFC17C8
:2003E80010800017108001041007883AE0BFFC171080081718800035E0BFFA17E0BFF91555
:2003F000E0BFF9171001703AE0FFF517E0BFFD1718800426E0FFF517E0BFFD171885C83AE6
:2003F80000000606E0BFFF171090000C1000022600BFFD440000010600BFFEC4E037883ADF
:20040000DFC00117DF000017DEC00204F800283ADEFFF304DFC00C15DF000B15DF000B04B0
:20040800E13FFC15E17FFD15E1BFFE15E1FFFF15E03FF515E0BFFD17E0BFF71500003706C6
:20041000E0BFFC1710800C17E0BFF915E0BFFC1710800D17E0BFF515E0FFF917E0BFF51711
:200418001880062EE0FFF517E0BFF9171885C83A10BFFFC4E0BFF61500000B06E0BFF517C7
:200420001000052600C20004E0BFF9171885C83AE0BFF6150000040600C1FFC4E0BFF91786
:200428001885C83AE0BFF615E0BFF61710001E26E0FFFE17E0BFF6171880022EE0BFFE174F
:20043000E0BFF615E0BFFC1710C20E04E0BFF9171885883AE1BFF617E17FFD171009883A62
:2004380000124680E0FFFD17E0BFF6171885883AE0BFFD15E0FFFE17E0BFF6171885C83ADE
:20044000E0BFFE15E0FFF917E0BFF6171885883A10C1FFCCE0BFFC1710C00C15E0BFFE17FD
:2004480000BFC716000001060001883A0005303AE0BFFB15E0FFFB1700BFFF841884703A97
:200450001001703AE0BFFB17E0BFFA15E0BFFC171080081710C00094E0BFFC1710C008150E
:20045800E0BFFC1710800017108001041007883AE0BFFC171080081718800035E0BFFA17DF
:20046000E0BFF815E0BFF8171001703AE0BFFE170080100EE0BFFF171090000C1000101E76
:200468000001883AE0BFFC1710C00D17E0BFF5171880051EE0BFFC1710C00917E0BFFC1751
:200470001080011718BFF736E0BFFC17108009171000051EE0BFFE1700BFD01600000306C9
:200478000001883A000001060001883AE0FFFD17E0BFF71718800426E0FFFD17E0BFF717D5
:200480001885C83A00000606E0BFFF171090000C1000022600BFFD440000010600BFFEC490
:20048800E037883ADFC00117DF000017DEC00204F800283ADEFFF504DF000A15DF000A040F
:20049000E13FFC15E17FFD15E1BFFE15E1FFFF15E03FF615D0A5A61710003C26E0BFFC1782
:2004980010003826E0BFFC17E0FFFE1710C00315E0BFFC17E0FFFF1710C005150005303A48
:2004A000E0BFF915E0FFF91700BFFF841884703A1001703AE0BFF917E0BFF815D0A5A717CF
:2004A800E0BFF615E0FFFD17E0BFF6171885883A10C00044E0BFFC1710C00215E0BFFC172D
:2004B00010C00217E0BFF6171880042EE0BFFC1700C0004410C0040500000206E0BFFC1784
:2004B80010000405E0BFFC17D0E00704E0FFFA15E0BFFB15E0BFFB17E0FFFA1710C001157A
:2004C000E0BFFA1710C00017E0BFFB1710C00015E0BFFA1710800017E0FFFB1710C00115C1
:2004C800E0BFFA17E0FFFB1710C00015E0BFF817E0BFF715E0BFF7171001703A0005883A06
:2004D0000000030600BFFA840000010600BFDE84E037883ADF000017DEC00104F800283AD2
:2004D800DEFFFA04DFC00515DF000415DF000404E13FFF1500800244E0BFFD15014003F4AE
:2004E00029509004E13FFD1700103D80100B883A0100BEF4213C200400129D80100B883AD1
:2004E80001200034213FFFC400129D80100B883AE13FFF1700129D80E0BFFE15E0BFFE17A5
:2004F00010002A26E03FFC150000170600A0003410BFFFC410BFFFC4103FFE1E014003F4A4
:2004F80029509004E13FFD1700103D80100B883A0100BEF4213C200400129D80100B883AB9
:2005000001200034213FFFC400129D801007883AE0BFFF1710C5C83AE0BFFF15E0BFFC176A
:2005080010800044E0BFFC15E0FFFC17E0BFFE1718BFE616014003F429509004E13FFD175D
:2005100000103D80100B883A0100BEF4213C200400129D80E17FFF171009883A00103D80A0
:2005180010BFFFC4103FFE1E00000D06014003F429509004E13FFD1700103D80100B883A90
:200520000100BEF4213C200400129D80E17FFF171009883A00103D8010BFFFC400BFFE16D5
:200528000005883AE037883ADFC00117DF000017DEC00204F800283ADEFFFE04DFC00115D4
:20053000DF000015D839883AD0A0061710000326D0A00617103EE83A00000106D0A5A904F8
:20053800E037883ADFC00117DF000017DEC00204F800283ADEFFFB04DFC00415DF00031594
:20054000DF000304E13FFF15E0BFFF171000081601400304E13FFF1700103D801007883A7A
:2005480000800074108EE2041885883A000001060005883AE0BFFD15E0BFFD17100019263B
:20055000E0BFFD17108000171080041710000626E0BFFD171080001710800417E13FFD1711
:20055800103EE83A000001060005883AE0BFFE15E13FFF170011E5C0E0BFFE171000070ECE
:2005600000114B801007883AE0BFFE170085C83A1880001500BFFFC4000007060005883A88
:200568000000050600114B801007883A008014441880001500BFFFC4E037883ADFC001171C
:20057000DF000017DEC00204F800283ADEFFFF04DF000015D839883A0001883AE037883A34
:20057800DF000017DEC00104F800283ADEFFFC04DF000315DF000304E13FFD15E17FFE1511
:20058000E1BFFF15E0BFFF17E037883ADF000017DEC00104F800283ADEFFFE04DFC0011592
:20058800DF000015D839883AD0A0061710000326D0A00617103EE83A00000106D0A5A904A0
:20059000E037883ADFC00117DF000017DEC00204F800283ADEFFFA04DFC00515DF0004153B
:20059800DF000404E13FFE15E17FFF15E0BFFE1710000326E0BFFE17108002171000061E37
:2005A000001161801007883A008005841880001500BFFA8400001306E0BFFE17E0FFFF17BB
:2005A800E0FFFC15E0BFFD15E0BFFD17E0FFFC1710C00115E0BFFC1710C00017E0BFFD17BB
:2005B00010C00015E0BFFC1710800017E0FFFD1710C00115E0BFFC17E0FFFD1710C000158A
:2005B8000005883AE037883ADFC00117DF000017DEC00204F800283ADEFFFD04DFC0021544
:2005C000DF000115DF00010400800074108AB104E0BFFF1500000606E0BFFF1710800017E4
:2005C800103EE83AE0BFFF1710BFFF04E0BFFF15E0FFFF1700800074108AB20418BFF62E35
:2005D0000001883AE037883ADFC00117DF000017DEC00204F800283ADEFFFD04DFC0021530
:2005D800DF000115DF00010400800074108AB104E0BFFF1500000606E0BFFF1710800017CC
:2005E000103EE83AE0BFFF1710BFFF04E0BFFF15E0FFFF1700800074108AB20418BFF62E1D
:2005E8000001883AE037883ADFC00117DF000017DEC00204F800283ADEFFFF04DF000015D8
:2005F000D839883A0001883AE037883ADF000017DEC00104F800283ADEFFF904DFC00615F5
:2005F800DF000515DF000504E13FFC15E17FFD15E1BFFE15E1FFFF15E0800217D8800015D2
:20060000E1FFFF17E1BFFE17E17FFD17E13FFC1700119880E037883ADFC00117DF000017D9
:20060800DEC00204F800283ADEFFF904DF000615DF000604E13FFE15E17FFF15E0BFFF17BB
:20061000E0BFFA150005303AE0BFFB15E0FFFB1700BFFF841884703A1001703AE0BFFB1719
:20061800E0BFFC1500C00044E0BFFA171884983A1007883AD0A5A2171884B03AD0A5A21537
:20062000D0A5A217100170FAE0BFFC17E0BFFD15E0BFFD171001703A0005883A0001883AB6
:20062800E037883ADF000017DEC00104F800283ADEFFF904DF000615DF000604E13FFE15F6
:20063000E17FFF15E0BFFF17E0BFFA150005303AE0BFFB15E0FFFB1700BFFF841884703A3C
:200638001001703AE0BFFB17E0BFFC1500C00044E0BFFA171884983A0084303A1007883A9D
:20064000D0A5A2171884703AD0A5A215D0A5A217100170FAE0BFFC17E0BFFD15E0BFFD173B
:200648001001703A0005883A0001883AE037883ADF000017DEC00104F800283ADEFFFC04A4
:20065000DF000315DF000304E13FFE15E17FFF15000530FAE0BFFD1500C00044E0BFFF176D
:200658001884983A1007883AE0BFFD171884703A1004C03A10803FCCE037883ADF000017CA
:20066000DEC00104F800283ADEFFF504DFC00A15DF000915DF000904E13FFC15E17FFD155D
:20066800E1BFFE15E1FFFF1500BFFA84E0BFF715E0BFFD17E0BFF815E0BFF8171080080836
:200670001000271E0005303AE0BFFB15E0FFFB1700BFFF841884703A1001703AE0BFFB1712
:20067800E0BFFA15008000741095F504E0FFF817180690FA10C5883AE0FFFE1710C000151C
:20068000008000741095F504E0FFF817180690FA10C5883A10800104E0FFFF1710C000152C
:20068800E0BFFE1710000526E0BFF817100B883AE13FFC170011828000000406E0BFF817DA
:20069000100B883AE13FFC1700118B00E0BFF715E0BFFA17E0BFF915E0BFF9171001703A2C
:20069800E0BFF717E037883ADFC00117DF000017DEC00204F800283ADEFFF804DFC007157D
:2006A000DF000615DC000515DF000604E13FFB15E17FFC15E1BFFD15E1FFFE15E1BFFE1766
:2006A800E17FFD17E13FFC170011D000E0BFFA15E0BFFA171000221604000074840EE20414
:2006B000E0BFFA17014003041009883A00103D808085883A10C00017E0BFFB1710C0001546
:2006B80004000074840EE204E0BFFA17014003041009883A00103D808085883A1080010436
:2006C00010C00017E0BFFB1710C0011504000074840EE204E0BFFA17014003041009883AD9
:2006C80000103D808085883A1080020410C00017E0BFFB1710C00215E13FFA170011E5C082
:2006D0000001883AE6FFFF04DFC00217DF000117DC000017DEC00304F800283ADEFFFB04E2
:2006D800DFC00415DF000315DF000304E13FFD15E17FFE15E1BFFF1501C07FC4018000444B
:2006E000E17FFD1701000074210EE5040011A78001C07FC4000D883AE17FFE170100007404
:2006E800210EE2040011A78001C07FC401800044E17FFF1701000074210EE8040011A7809E
:2006F0000001883AE037883ADFC00117DF000017DEC00204F800283ADEFFFE04DFC001150F
:2006F800DF000015D839883AD0A0061710000326D0A00617103EE83A00000106D0A5A9042F
:20070000E037883ADFC00117DF000017DEC00204F800283ADEFFFB04DFC00415DF000315CA
:20070800DC000215DF000304E13FFE15E0BFFE171080021710D00034E0BFFE1710C00215B9
:20071000E03FFD150000230604000074840EE204E0BFFD17014003041009883A00103D80DC
:200718008085883A10C00017E0BFFE17108000171880151E04000074840EE204E0BFFD174A
:20072000014003041009883A00103D808085883A108002041080001710000B0E0140030454
:20072800E13FFD1700103D801007883A00800074108EE2041887883AE0BFFE17188002268A
:2007300000BFFCC400000806E0BFFD1710800044E0BFFD15D0A005171007883AE0BFFD17CC
:2007380018BFD92E0005883AE6FFFF04DFC00217DF000117DC000017DEC00304F800283A73
:20074000DEFFF604DFC00915DF000815DF000804E13FFD15E17FFE15E1BFFF1500BFFFC443
:20074800E0BFF91500BFFB44E0BFFA15E03FFB15D1600304E13FFD1700120A80E0BFF81555
:20075000E0BFF8171000051EE13FFD1700121380E0BFF81500800044E0BFFB15E0BFF81702
:2007580010002B26E13FF81700122400E0BFF915E0BFF9171000030EE0BFF917E0BFFA15E1
:200760000000250601400304E13FF91700103D801007883A00800074108EE2041885883A59
:20076800E0BFFC15E0FFFE170090003410BFFFC41886703AE0BFFC1710C00215E0BFFB17E5
:200770001000051EE13FFC170011C140E0BFFA15E0BFFA1710001016E0BFF8171080031705
:2007780010000826E0BFF81710800317E1FFFF17E1BFFE17E17FFD17E13FFC17103EE83A09
:20078000000001060005883AE0BFFA150000020600BFFB44E0BFFA15E0BFFA171000090E52
:20078800E13FF9170011E5C00011BD801007883AE0BFFA170085C83A1880001500BFFFC4DE
:2007900000000106E0BFF917E037883ADFC00117DF000017DEC00204F800283ADEFFFC0432
:20079800DFC00315DF000215DC000115DF000204E13FFE15E0BFFE17108000D01000111E37
:2007A00004000074840EE204E0BFFE17014003041009883A00103D808085883A1080020448
:2007A8001000001504000074840EE204E0BFFE17014003041009883A00103D808085883AB1
:2007B000100000150001883AE6FFFF04DFC00217DF000117DC000017DEC00304F800283AB8
:2007B800DEFFFA04DF000515DF000504E13FFF150005303AE0BFFC15E0FFFC1700BFFF84DE
:2007C0001884703A1001703AE0BFFC17E0BFFB15E0BFFF17E0BFFD15E0BFFD1710800017F7
:2007C800E0FFFD1718C0011710C00115E0BFFD1710800117E0FFFD1718C0001710C0001526
:2007D000E0BFFD17E0FFFD1710C00115E0BFFD17E0FFFD1710C00015E0BFFB17E0BFFE158F
:2007D800E0BFFE171001703A0001883AE037883ADF000017DEC00104F800283ADEFFFB0427
:2007E000DFC00415DF000315DF000304D0A00717E0BFFD15D0A5A71710800044D0A5A715ED
:2007E80000002E06E0BFFD1710800017E0BFFE15E0BFFD171080040310803FCC1000042692
:2007F000D0A5A7171000021EE0BFFD1710000405E0BFFD1710800217D0E5A71718801D3600
:2007F800E0BFFD171080040310803FCC1000191EE0BFFD1710800317E0FFFD1718C0051771
:200800001809883A103EE83AE0BFFF15E0BFFF171000031EE13FFD170011EE0000000D06A6
:20080800E0BFFD1710C00217E0BFFF171887883AE0BFFD1710C00215E0BFFD1710C00217E8
:20081000D0A5A7171880032EE0BFFD1700C0004410C00405E0BFFE17E0BFFD15E0FFFD17E4
:20081800D0A0070418BFCF1E0001883A0001883AE037883ADFC00117DF000017DEC00204D1
:20082000F800283ADEFFFF04DF000015D839883A000170FA0001883AE037883ADF000017BA
:20082800DEC00104F800283ADEFFFA04DFC00515DF000415DF000404E13FFE15E17FFF1599
:20083000E0BFFF1710800017E0BFFC15E13FFE1700125B0010800044E0BFFD1500000D0662
:20083800E0BFFC1710800217E0FFFD17180D883AE17FFE171009883A00123EC01000021EDB
:20084000E0BFFC1700000706E0BFFC1710800017E0BFFC15E0FFFC17E0BFFF1718BFF01E44
:200848000005883AE037883ADFC00117DF000017DEC00204F800283ADEFFFB04DFC00415B1
:20085000DF000315DF000304E13FFF15D0A00117E0BFFD1500003106E0BFFD1710800217AB
:200858001009883A00125B00E0BFFE15E0BFFD1710C00217E0BFFE1710BFFFC41885883A45
:200860001080000310803FCC1080201C10BFE00410800BD81000031EE0BFFE1710BFFFC4E1
:20086800E0BFFE15E0BFFE17E0FFFF171885883A1080000310803FCC1080201C10BFE00409
:2008700010800BE01000081EE0BFFE17E0FFFF171885883A1080000310803FCC1080201CB5
:2008780010BFE00410000A1EE0BFFD1710800217E0FFFE17180D883AE17FFF171009883AED
:2008800000123EC01000021EE0BFFD1700000706E0BFFD1710800017E0BFFD15E0FFFD175A
:20088800D0A0010418BFCC1E0005883AE037883ADFC00117DF000017DEC00204F800283ACF
:20089000DEFFFA04DFC00515DF000415DC000315DF000404E13FFE1500BFFA04E0BFFD1540
:20089800E03FFC1500001D0604000074840EE204E0BFFC17014003041009883A00103D805B
:2008A0008085883A108000171000111E04000074840EE204E0BFFC17014003041009883AC6
:2008A80000103D808085883AE0FFFE1710C00015D0E00517E0BFFC171880020EE0BFFC17EB
:2008B000D0A00515E0BFFC17E0BFFD1500000606E0BFFC1710800044E0BFFC15E0BFFC1747
:2008B80010800810103FE01EE0BFFD17E6FFFF04DFC00217DF000117DC000017DEC0030449
:2008C000F800283ADEFFFE04DF000115DF000104E13FFF15E0BFFF1710BFFE8410C00428D0
:2008C80018001A1E100690BA008000741088CF041885883A108000171000683A0001237CA9
:2008D0000001237C0001238C0001238C0001238C0001237C000123840001238C0001237CC0
:2008D8000001237C0001238C0001237C000123840001238C0001238C0001237C00800044A4
:2008E000000003060005883A000001060005883AE037883ADF000017DEC00104F800283A8E
:2008E800200B883A000F883A000D883A0009883A00126481DEFFFE04000B883ADC00001504
:2008F000DFC001152021883A0012760000800074109054041100001720800F171000012697
:2008F800103EE83A8009883A0012A94001C000C43980192E2144B03A11C4703A10000F2692
:200900002080000328C0000310C0151E31BFFF8401FFFFC4000004062080000328C0000378
:2009080031BFFFC410C00E1E210000442940004431FFF91E0005883AF800283A20C00017AF
:200910002880001718BFEE1E31BFFF04210001042940010439BFF936303FE91E003FF506C7
:2009180010C5C83AF800283ADEFFFD04DFC00215DC400115DC00001500C003C42005883A69
:200920001980452E2906B03A18C000CC1800441E347FFC048822D13A28C0010423400104B7
:200928008820913A2B00020422C00204840005042A800304224003042C21883A2811883A72
:20093000200F883A410000171FC0001763C0001739000015538000176FC000155BC0001582
:200938004B80001518C0040439C00404420004046B400404630004045AC00404528004047A
:200940004A4004041C3FEF1E89C00044380E913A310003CC02C000C411C7883A29CB883A29
:200948005900212E1813883A2811883A200F883A428000174A40010439FFFF044ABFFF154E
:200950004200010459FFFA36213FFF042008D0BA318000CC210000442109883A2109883AE9
:200958001907883A290B883A30000626198D883A29C0000318C000442940004419FFFFC552
:2009600019BFFB1EDFC00217DC400117DC000017DEC00304F800283A2007883A003FF20688
:200968002007883A003FF106200D883A003FEE06208000CC1000202620800007100020266F
:200970002005883A0000020610C00007180018261080004410C000CC183FFB1E10C0001784
:2009780001FFBFF439FFBFC400CA303A01A0207419C7883A31A020041946703A1986703A9F
:200980001800091E1080010410C0001719CB883A00C6303A28C6703A1986703A183FF9266F
:20098800000001061080004410C00007183FFD1E1105C83AF800283A2005883A003FE706A6
:200990000005883AF800283ADEFFFA04DC000315040000748410540480C00017DC40041567
:20099800DFC00515188052172023883A1000372610C00117010007C420C00E161A000044FD
:2009A0008800221E18C0008418C7883A18C7883A1200011510C7883A194000150005883ADB
:2009A800DFC00517DC400417DC000317DEC00604F800283A008000341080000410002626A1
:2009B00001006404D9400015D9800115D9C0021500000000D9400017D9800117D9C002171E
:2009B80010001D26810000171000011502000044224052170007883A1240001520805215C6
:2009C0001000621510006315883FDE2618C9883A2109883A1109883A218022150180004435
:2009C8001240621730CC983A4992B03A1240621521C0421501000084893FD21E11006317E8
:2009D000218CB03A11806315003FCE061880530418805215003FC60600BFFFC4003FD006C4
:2009D800DEFFF504DF000915DD400615DC800315DFC00A15DDC00815DD800715DD00051598
:2009E000DCC00415DC400215DC000115D90000152839883A04800044057FFFC40080007409
:2009E80010905404120000174500521744C05204A0001C26A080011715FFFFC4B8000D16FA
:2009F000140000448421883A8421883A84402004A463883AA421883AE0001E26808040170E
:2009F800E0801C26BDFFFFC4843FFF048C7FFF04BD7FF91E00800034108000041000092610
:200A0000A08001171000301EA080001710003226A009883A98800015000000009D00001755
:200A0800A03FE41EDFC00A17DF000917DDC00817DD800717DD400617DD000517DCC004170D
:200A1000DC800317DC400217DC000117DEC00B04F800283AA080011780C0001710BFFFC4FF
:200A180015C0142680000015183FDE2695C8983AA0806217A58001172084703A10000B262B
:200A2000A08063172088703A20000C1E89400017D9000017183EE83AA080011715BFBF1E4F
:200A280098800017153FCF26003FBC06183EE83A003FF906A5C00115003FEB068900001734
:200A3000183EE83A003FF406A0800017A027883A1029883A003FB6060005883A003FFB0638
:200A380020001B16000F883A28001616200D883A29001A2E0080080400C000440000010631
:200A400010000D26294B883A10BFFFC418C7883A293FFB360005883A180007260005883A7E
:200A480031400236314DC83A10C4B03A1806D07A280AD07A183FFA1E380001260085C83A6E
:200A5000F800283A014BC83A39C0005C003FE7060109C83A01C00044003FE30600C0004420
:200A5800003FEE0620001716000F883A2005883A280012162900162E0180080400C00044F8
:200A60000000010630000A26294B883A31BFFFC418C7883A293FFB36180005261806D07A41
:200A6800114001361145C83A280AD07A183FFB1E380001260085C83AF800283A014BC83A14
:200A7000003FEC060109C83A01C00044003FE70600C00044003FF106200D883A2900152E63
:200A7800280014160080080400C000440000020610000E2628000516294B883A10BFFFC425
:200A800018C7883A293FFA36180008260005883A31400236314DC83A10C4B03A1806D07AC1
:200A8800280AD07A183FFA1EF800283A0005883AF800283A00C00044003FF4062005883AC4
:200A90002900122E280011160180080400C000440000020630000C2628000516294B883A1A
:200A980031BFFFC418C7883A293FFA36180006261806D07A114001361145C83A280AD07A4A
:200AA000183FFB1EF800283AF800283A00C00044003FF706DEFFFD04DF000215DF00020419
:200AA800E13FFF150001883AE0BFFF17E0BFFE15E0BFFE1710000226002AF0700000010653
:200AB000002AF0B0003FFF067665642F61746A2F61755F67305F7472000000007665642FBD
:200AB80061746A2F61755F67305F7472000000007665642F6C756E2F0000006C0000004304
:200AC000000000000000000000000000000000000000000000000000000000000000000016
:200AC80000000000000000000000000000000000000000000000000000000000000000000E
:200AD000000000000000000000000000000000000000000000000000000000000000000006
:200AD8000000000000000000000000000000000000000000000000000000000000000000FE
:2010580000012ADC000000000001088C000107CC0001082C0000000000000000000108DCEE
:20106000000210600000000A000000000000000000000000000000000000000000000000F4
:20106800000000000000000000000000000000000000000000000000000000000000000068
:20107000000000000000000000000000000000000000000000000000000000000000000060
:20107800000000000000000000000000000000000000000000000000000000000000000058
:20108000000000000000000000000000000000000000000000000000000000000000000050
:20146800000000000000000000000000000000000000000000000000000141380001413870
:2014700000012AF0000000000000000000000000000115EC0000000000000000000000003F
:2014780000013B60000000000000000000013B60000000000000000000013B600000000080
:2014800000000000000000000000000000000000000000000000000000000000000000004C
:20148800000000000000000000000000000000000000000000000000000000000000000044
:2014900000000000000000000000000000000000000000000000000000000000000000003C
:20149800000000000000000000000000000000000000000000000000000000000000000034
:2014A00000000000000000000000000000000000000000000000000000000000000000002C
:2014A800000000000000000000000000000000000000000000000000000000000000000024
:2014B00000000000000000000000000000000000000000000000000000000000000000001C
:2014B800000000000000000000000000000000000000000000000000000000000000000014
:2014C00000000000000000000000000000000000000000000000000000000000000000000C
:2014C800000000000000000000000000000000000000000000000000000000000000000004
:2014D0000000000000000000000000000000000000000000000000000000000000000000FC
:2014D8000000000000013FF40001405C000140C4000000000000000000000000000000001E
:2014E000000000000000000000000000000000000000000000012AFC0000000000000000C5
:2014E8000000000000000000000000000000000000000000000000000000000000000000E4
:2014F0000000000000000000000000000000000000000000000000000000000000000000DC
:2014F8000000000000000000000000000000000000000000000000000000000000000000D4
:20150000000000000000000100000000ABCD330EE66D12340005DEEC0000000B000000009E
:201508000000000000000000000000000000000000000000000000000000000000000000C3
:201510000000000000000000000000000000000000000000000000000000000000000000BB
:201518000000000000000000000000000000000000000000000000000000000000000000B3
:201520000000000000000000000000000000000000000000000000000000000000000000AB
:201528000000000000000000000000000000000000000000000000000000000000000000A3
:2015300000000000000000000000000000000000000000000000000000000000000000009B
:20153800000000000000000000000000000000000000000000000000000000000000000093
:2015400000000000000000000000000000000000000000000000000000000000000000008B
:20154800000000000000000000000000000000000000000000000000000000000000000083
:2015500000000000000000000000000000000000000000000000000000000000000000007B
:20155800000000000000000000000000000000000000000000000000000000000000000073
:2015600000000000000000000000000000000000000000000000000000000000000000006B
:20156800000000000000000000000000000000000000000000000000000000000000000063
:2015700000000000000000000000000000000000000000000000000000000000000000005B
:20157800000000000000000000000000000000000000000000000000000000000000000053
:2015800000000000000000000000000000000000000000000000000000000000000000004B
:20158800000000000000000000000000000000000000000000000000000000000000000043
:2015900000000000000000000000000000000000000000000000000000000000000000003B
:20159800000000000000000000000000000000000000000000000000000000000000000033
:2015A00000000000000000000000000000000000000000000000000000000000000000002B
:2015A800000000000000000000000000000000000000000000000000000000000000000023
:2015B00000000000000000000000000000000000000000000000000000000000000000001B
:2015B800000000000000000000000000000000000000000000000000000000000000000013
:2015C00000000000000000000000000000000000000000000000000000000000000000000B
:2015C800000000000000000000000000000000000000000000000000000000000000000003
:2015D0000000000000000000000000000000000000000000000000000000000000000000FB
:2015D8000000000000000000000000000000000000000000000000000000000000000000F3
:2015E00000000000FFFFFFFF000141300001413000013B6000013B60FFFFFFFF00000000D7
:2015E800000141480001414800013D0800013D080000000000000000000000000000000043
:2015F0000000000000000000000000000000000000000000000000000000000000000000DB
:2015F8000000000000000000000000000000000000000000000000000000000000000000D3
:201600000000000000000000000000000000000000000000000000000000000000000000CA
:201608000000000000000000000000000000000000000000000000000000000000000000C2
:00000001FF
